S0140000536368616C6C53656E736F722E737265633F
S113000071C0000081C000007FC000007DC00000FE
S11300107BC0000079C0000077C0000075C00000FC
S113002073C0000073C000006FC000006DC000000A
S11300306BC0000069C0000067C0000065C000001C
S113004063C0000061C000005FC000005DC000002C
S11300505BC0000059C0000057C0000055C000003C
S113006053C0000051C000004FC000004DC000004C
S11300704BC0000049C0000047C0000045C000005C
S113008043C0000041C000003FC000003DC000006C
S11300903BC0000039C0000037C0000035C000007C
S11300A033C0000031C000002FC000002DC000008C
S11300B02BC0000029C0000027C0000025C000009C
S11300C023C0000021C000001FC000001DC00000AC
S11300D01BC0000019C0000017C0000015C00000BC
S11300E013C0000011241FBECFEFD1E2DEBFCDBF8D
S11300F000E00CBF22E0A0E0B2E001C01D92A430F9
S1130100B207E1F702D074C07BCFFFCF1F920F92EA
S11301100FB60F9211240BB60F922F933F934F9368
S11301205F936F937F938F939F93AF93BF93EF935B
S1130130FF93609188007091890080E090E01BD06B
S11301406093000270930102809302029093030271
S1130150FF91EF91BF91AF919F918F917F916F919B
S11301605F914F913F912F910F900BBE0F900FBE57
S11301700F901F901895E89409C097FB3EF4909552
S11301808095709561957F4F8F4F9F4F9923A9F06C
S1130190F92F96E9BB279395F695879577956795FB
S11301A0B795F111F8CFFAF4BB0F11F460FF1BC03F
S11301B06F5F7F4F8F4F9F4F16C0882311F096E9D2
S11301C011C0772321F09EE8872F762F05C0662380
S11301D071F096E8862F70E060E02AF09A95660F39
S11301E0771F881FDAF7880F9695879597F90895F2
S10701F0F894FFCFAD
S9030000FC
